:020000040800F2
:10000000002000207D340008C9340008C9340008ED
:1000100000000000000000000000000000000000E0
:10002000000000000000000000000000C9340008CB
:100030000000000000000000C93400084555000819
:1000400055550008C9340008C9340008C9340008EF
:10005000C9340008C9340008C9340008C93400088C
:10006000C9340008C93400086955000889550008DA
:10007000C9340008C9340008C9340008C93400086C
:10008000C9340008C934000800000000C934000861
:10009000C9340008C9340008C9340008C93400084C
:1000A000C9340008C9340008C9340008C93400083C
:1000B000C934000800000000C93400080000000036
:1000C0005FF808F180B582B000AF78607B68002BE4
:1000D00001D101232AE07B685B7CDBB2002B03D1DA
:1000E0007B68181C05F070F87B6802225A747B68E4
:1000F0001B687A6812685268520A51027A6850681E
:100100007A68926802430A435A607B681B687A687F
:10011000126812687F21101C8843011C7A68D2681B
:100120000A431A607B6801225A740023181CBD46DA
:1001300002B080BD80B582B000AF78607B681B7C68
:10014000012B01D1022314E07B6801221A747B6821
:1001500002225A747B681B687A68126812688021D0
:100160000A431A607B6801225A747B6800221A7461
:100170000023181CBD4602B080BDC04680B582B0C9
:1001800000AF786039607B681B7C012B01D10223B2
:1001900018E07B6801221A747B6802225A747B681B
:1001A0001B687A68126812687F21101C8843011C42
:1001B0003A680A431A607B6801225A747B680022FD
:1001C0001A740023181CBD4602B080BD80B582B0F1
:1001D00000AF78607B681B685A6880239B001340DF
:1001E00014D07B681B689A68012313400ED07B688B
:1001F000181C00F00FF87B6801225A747B681B689A
:10020000022252429A607B6800221A74BD4602B0F4
:1002100080BDC04680B582B000AF7860BD4602B0F8
:1002200080BDC04680B582B000AF021CFB1D1A70B5
:10023000FB1D1B78002B09D00F4B1B68181C01F00D
:10024000FFFA0D4B1B68181C01F0A2FA0B4B1B6840
:100250005B6A1A1C0A4B1A60074B1B68181C01F0DA
:10026000DFFF054B1A68074B101C191C0B2201F00D
:100270001DFABD4602B080BD100500209408002084
:10028000540500207802002080B582B000AF021C27
:10029000BB1D1A80124B1B685A6ABB1D1B88D318E2
:1002A0001A1C104B1A600F4B1A680F4B9A420CDD48
:1002B0000B4B1B6800225A62C046094B1B685A6AE6
:1002C000BB1D1B889A42F8D307E0C046044B1B684D
:1002D0005A6A044B1B689A42F8D3BD4602B080BDEF
:1002E000FC030020B8010020FFFF000080B582B0B1
:1002F00000AF021CFB1D1A70FB1D1B78402B04D99C
:10030000FB1D1B78373BDBB203E0FB1D1B78303B4A
:10031000DBB2181CBD4602B080BDC04680B582B0BD
:1003200000AF021CFB1D1A70FB1D1B78092B04D9A2
:10033000FB1D1B783733DBB203E0FB1D1B7830332A
:10034000DBB2181CBD4602B080BDC04690B5ABB054
:1003500000AF78607B685B7A623B182B00D9B3E210
:100360009A00E54BD3181B689F467B689B7A002B4D
:1003700003D1E24B00221A7002E0E04B01221A7016
:100380007B68DB7A002B03D1DD4B00221A7002E080
:10039000DB4B01221A707B681B7B002B03D1D94BEE
:1003A00000221A7002E0D74B01221A70D44B197840
:1003B000D24B1A78D34B1B78081C111C1A1C00F066
:1003C000CDFB84E27B681B79502B6AD13B1C9033B8
:1003D00053221A70CC4B1B6C1B0EDAB23B1C9033B1
:1003E0005A70C94B1B6C1B0CDAB23B1C90339A70D1
:1003F000C54B1B6C1B0ADAB23B1C9033DA70C24B44
:100400001B6CDAB23B1C90331A71BF4B9B8F1B09DC
:100410009BB2DAB23B1C90335A71BB4B9B8FDAB262
:100420000F231340DAB23B1C90339A713B1C90337C
:100430003022DA713B1C903330221A723B1C90330D
:1004400049225A723B1C90334E229A723B1C9033C5
:100450004922DA723B1C903354221A733B1C9033AE
:100460004D225A733B1C90330D229A733B1C9033E0
:100470000A22DA733B1C78333A1C9032043313CAD5
:1004800013C31168196092889A803B1C783312223A
:100490001A609E4A3B1C7833101C191C05F040FA68
:1004A00015E214E27B681B79502B5FD17B685B7986
:1004B0001A067B689B791B04D2187B68DB791B02C8
:1004C000D2187B681B7AD3181A1C8F4B1A648E4B78
:1004D0009B8F742B44D13B1C6C3350221A707B6869
:1004E0005A793B1C6C335A707B689A793B1C6C338D
:1004F0009A707B68DA793B1C6C33DA707B681A7A05
:100500003B1C6C331A713B1C6C3369225A713B1CC7
:100510006C3300229A713B1C6C330022DA713B1C55
:100520006C3300221A723B1C6C3300225A723B1C43
:1005300054333A1C6C32043303CA03C312881A8042
:100540003B1C54330A221A603B1C5433181C05F020
:1005500037FD6F4A3B1C5433101C191C05F0E0F9A1
:100560006C4B01221A7000F09BFBB0E1AFE17B689D
:100570001B79502B00D0B8E07B689B7A181CFFF7E2
:10058000B5FE031C1A1C3B1CA6331A807B68DB7A61
:10059000181CFFF7ABFE031C1A1C3B1CA4331A806B
:1005A0003B1CA6331B881B019AB2FF2313409AB24F
:1005B0003B1CA43319880F230B409BB2D3189AB26B
:1005C000514B9A87504B9B8F181C00F00DFA031C5F
:1005D000002B37D04C4B9B8F1A1CF02313401A1161
:1005E0003B1CA3331A704C4B00221A600CE04A4BA0
:1005F0001A68454940238A18D31801221A71464BBC
:100600001B685A1C444B1A603B1CA3331A78424B9C
:100610001B689A42EBDC3B1CA3331A783E4B1A60F2
:100620000CE03D4B1A68384940238A18D318002241
:100630001A71394B1B685A1C374B1A60364B1B68B2
:10064000072BEEDD304B9B8F742B48D13B1C48337E
:1006500050221A703B1C483300225A703B1C48330E
:1006600000229A703B1C48330022DA703B1C48334E
:1006700000221A713B1C483374225A710820FFF77C
:100680004DFE031C1A1C3B1C48339A710420FFF7D3
:1006900045FE031C1A1C3B1C4833DA713B1C4833D3
:1006A00000221A723B1C483300225A723B1C303322
:1006B0003A1C4832043311CA11C312881A803B1CF9
:1006C00030330A221A603B1C3033181C05F078FCCA
:1006D0000F4A3B1C3033101C191C05F021F90D4B3F
:1006E00001221A7000F0DCFAF1E0F0E07B689A7AFF
:1006F0000A4B1A70EBE0C046E0A50008BC010020E0
:10070000BD010020BE01002004020020080F0020CF
:10071000000C0020F0030020C00100207403002022
:100720007B681B79502B07D16B4B9B8F742B03D1AC
:100730006A4B01221A70CAE0C9E07B68997A664A5E
:100740004E23D154664B01221A7000F0A9FA654B72
:1007500000221A600EE0634B1A68624B1968624B04
:100760004900C95A5C4B5200D1525E4B1B685A1C5F
:100770005C4B1A605B4B1B68032BECDD584B012272
:100780001A7000F08DFAA2E07B681B79502B32D1F1
:100790007B681B7B1A1C7B685B791B0299B27B68A8
:1007A0009B79CB1899B24C4B04325200D1527B68E2
:1007B0001B7B1A1C7B68DB791B0299B27B681B7A56
:1007C000CB1899B2444B0C325200D1527B681B7B40
:1007D0001A1C7B689B7A1B0299B27B68DB7ACB1868
:1007E00099B23D4B14325200D1523D4B01221A7046
:1007F00000F056FA6BE06AE07B68997A364A382353
:10080000D1547B68D97A344A3923D1547B68197B17
:10081000314A3A23D154324B01221A7000F040FA87
:1008200055E07B681B79502B4DD17B68997A2A4A19
:100830004D23D1542A4B01221A70274B9B8F742BC6
:100840003ED13B1C243350221A703B1C243300221F
:100850005A703B1C243300229A703B1C2433002224
:10086000DA703B1C243300221A713B1C24336822AB
:100870005A717B685A7A3B1C24339A713B1C24338F
:100880000022DA713B1C243300221A723B1C0C3309
:100890001A1D3B1C2433101C191C0A2206F008FBED
:1008A0003B1C0C330A221A603B1C0C33181C05F04D
:1008B00087FB0E4A3B1C0C33101C191C05F030F84A
:1008C00000F0EEF903E002E0002301E0C04601235E
:1008D000181CBD462BB090BD04020020F20300207E
:1008E000F0030020C0010020F4030020000C0020D1
:1008F00080B584B000AF78600A1CFB1C1A703B1CEA
:10090000083300221A6000225A607968FB1C1A78AA
:100910003B1C0833081C111C1A1C00F003F8BD46D0
:1009200004B080BD80B586B000AFF8607A603B1C33
:100930000B330A1C1A70FB683A1C0B3212781A71BE
:10094000284B1B6C1B0EDAB2FB685A71254B1B6CD3
:100950001B0CDAB2FB689A71224B1B6C1B0ADAB2D1
:10096000FB68DA711F4B1B6CDAB2FB681A72FB680A
:1009700000225A72FB6800229A72FB680022DA7227
:10098000FB6800221A733B1C173300221A7013E015
:100990003B1C17331B7809333A1C173212787968DD
:1009A0008A181278F968CB181A713B1C17331A7819
:1009B0003B1C173301321A703B1C17331B78072B73
:1009C000E6D9FB680433181C112105F03BFB031C1E
:1009D0001A1CFB685A75FB6812221A60C046BD4695
:1009E00006B080BD0402002080B582B000AF021CBA
:1009F000BB1D1A80BB1D1A880F231340082B01D181
:100A0000012300E00023181CBD4602B080BDC04693
:100A100080B582B000AF021CBB1D1A80BB1D1A88B6
:100A20000F231340042B01D1012300E00023181CE5
:100A3000BD4602B080BDC04680B582B000AFFB1D90
:100A400000221A70FB1D00221A700AE0FB1D1A78A2
:100A5000304B52000021D152FB1D1A78FB1D013290
:100A60001A70FB1D1B78032BF0D9FB1D00221A7096
:100A700021E0FB1D1A78274B043252000021D1528D
:100A8000FB1D1A78234B0C3252000021D152FB1D62
:100A90001A78204B143252000021D152FB1D1A78D3
:100AA0001C4940238A18D31800221A71FB1D1A789A
:100AB000FB1D01321A70FB1D1B78072BD9D9FB1DBA
:100AC00000221A700CE0FB1D1A78124938238A188C
:100AD000D31800221A70FB1D1A78FB1D01321A7000
:100AE000FB1D1B78022BEED90A4BFF229A87094B7C
:100AF000094A1A64074A4D230221D154054A4C235E
:100B0000AA21D154034B181C00F062F8BD4602B074
:100B100080BDC04604020020FFFFFF0F80B500AF7C
:100B20000C4B181C0121012205F09CF9094B181CE3
:100B30001021012205F096F9074A4D23D35C022BC0
:100B400005D1044B181C0221012205F08BF9BD468A
:100B500080BDC046000400480402002080B582B079
:100B600000AFFB1D1870BB1D19707B1D1A70FB1D9B
:100B70001B78082B07D0144AFB1D1B78101C012181
:100B80001A1C05F06FF9BB1D1B78082B07D00E4A05
:100B9000BB1D1B78101C10211A1C05F063F90B4AB1
:100BA0004D23D35C022B0BD17B1D1B78082B07D068
:100BB000054A7B1D1B78101C02211A1C05F052F9F6
:100BC000BD4602B080BDC0460004004804020020BB
:100BD000B0B58AB000AF78607B683B621423FB61DC
:100BE00072B604F0ABFB244B3422DA603B1C1033AA
:100BF00000221A60214B1A683B1C10335A603B1CC0
:100C0000103301229A603A1C10323B1C0C33101C2A
:100C1000191C03F04DF93B1C273300221A701EE00B
:100C20003B1C27331B789B001A1C144B1B68D218E3
:100C30003B1C27331B789B00396ACB181B681C1C94
:100C400000231D1C0220111C221C2B1C04F0DCFAAA
:100C50003B1C27331A783B1C273301321A703B1C8C
:100C600027331A78FB699A42DADB04F081FB62B61B
:100C7000BD460AB0B0BDC0460020024000000020C2
:100C800080B500AF044B1B68044A101C191C50228D
:100C900006F00EF9BD4680BD0000002004020020D1
:100CA00080B58AB000AF9B4B9B8F181CFFF7B0FE3E
:100CB000031C002B3ED0974A4D23D35C022B17D147
:100CC0003B1C083308221A603B1C083301225A607F
:100CD0003B1C083300229A603B1C08330022DA6078
:100CE0009023DA053B1C0833101C191C04F062FE2B
:100CF000894B1B689847874A4D23D35C022B06D04B
:100D0000864B181C0221012205F0ACF806E0902366
:100D1000DB05181C0821012205F0A4F89023DB054F
:100D2000181C1021012205F09DF805F0CBF97C4B31
:100D300001221A703B1C273300221A700DE03B1C65
:100D400027331A78774B52000021D1523B1C2733AE
:100D50001A783B1C273301321A703B1C27331B784F
:100D6000032BECD96B4B9B8F181CFFF73DFE031C2C
:100D7000002B0DD000F0F2FA012000F009FB654BCA
:100D80009B8F1A1CF02313401B11DAB2644B1A70AC
:100D9000604B9B8FDAB23B1C1C331A705D4A3823C0
:100DA000D25C3B1C1C335A705A4A3923D25C3B1C20
:100DB0001C339A70574A3A23D25C3B1C1C33DA70BE
:100DC0003B1C1C3300221A713B1C1C3300225A713D
:100DD0003B1C1C3300229A713B1C1C330022DA712D
:100DE000514A3B1C1C33101C49211A1CFFF79AFD69
:100DF0003B1C243300221A80464B9B8F181CFFF7A4
:100E0000F3FD031C002B00D175E03B1C24330022B2
:100E10001A806AE03B1C24331A883E4940238A1812
:100E2000D3181B79012B59D13B1C00221A703B1C93
:100E300024331B88DAB23B1C5A703B1C24331A88BB
:100E4000344B04325200D35A1B0A9BB2DAB23B1C19
:100E50009A703B1C24331A882E4B04325200D35A0A
:100E6000DAB23B1CDA703B1C24331A88294B0C3253
:100E70005200D35A1B0A9BB2DAB23B1C1A713B1CBC
:100E800024331A88234B0C325200D35ADAB23B1C5B
:100E90005A713B1C24331A881E4B14325200D35A09
:100EA0001B0A9BB2DAB23B1C9A713B1C24331A8892
:100EB000184B14325200D35ADAB23B1CDA713B1C85
:100EC00024331A88131C5B009B18DB00174A9A18FE
:100ED0003B1C101C53211A1CFFF724FD3B1C243320
:100EE0001A883B1C243301321A803B1C24331B8894
:100EF000072B00D88EE70E4B181C4421FFF7F8FC97
:100F00000C4B00221A700C4B00221A70BD460AB01E
:100F100080BDC04604020020E80300200004004811
:100F2000EC030020F40300203805002038060020E0
:100F300090070020F8060020F103002090B59DB036
:100F40001AAFA34B00221A70A24B9B8F742B00D0B8
:100F5000ECE0A14B1B685A6A3B1D1A809F4C902302
:100F6000DB051593102316939D4B17936B46191CA5
:100F7000221C10325423081C111C1A1C05F098FF67
:100F800020686168A268E36805F016F9914A4D236C
:100F9000D35C022B1AD1914C9023DB0515930823C7
:100FA0001693904B1793904B18936B46191C221C69
:100FB00010325423081C111C1A1C05F079FF2068FC
:100FC0006168A268E36805F0AFFD18E0834C874BC9
:100FD000159302231693834B1793834B18936B46F9
:100FE000191C221C10325423081C111C1A1C05F059
:100FF0005FFF20686168A268E36805F095FD784BA3
:101000001B88002B0BD0764B5B88002B07D0744BD2
:101010009B88002B03D0724BDB88002B04D1744BD0
:101020001B78002B00D181E06A4A4E23D35C012B50
:101030000DD16B4B5B886F4AD31A9AB2684B5A80BA
:10104000674B9B886B4AD31A9AB2654B9A80644B64
:101050001B881A1C5F4B1B88D31A664A9B18181CE6
:10106000644905F0FBFE0B1C9AB2634B1A805C4B83
:101070005B881A1C574B5B88D31A604A9B18181C54
:101080005C4905F0EBFE0B1C9AB25B4B5A80544B4B
:101090009B881A1C4F4B9B88D31A584A9B18181CC4
:1010A000544905F0DBFE0B1C9AB2534B9A804C4B13
:1010B000DB881A1C474BDB88D31A4E4A9B18181C36
:1010C0004C4905F0CBFE0B1C9AB24B4BDA80FB1D52
:1010D00000221A7020E0FB1D1B785B000933FA1D0B
:1010E0001178454A49008A5A120A92B2D2B244494A
:1010F000CB181A71FB1D1B7805335B00FA1D1178A4
:101100003D4A49008A5AD2B23D49CB181A71FB1D9B
:101110001A78FB1D01321A70FB1D1B78032BDAD9DC
:101120002F4B0022DA802A4B01221A70294B9B8F09
:10113000842B2AD1294C9023DB0515931023169379
:10114000304B17936B46191C221C10325423081C79
:10115000111C1A1C05F0ACFE20686168A268E368E7
:1011600005F02AF81E4BDB88002B0ED01C4BDB88C9
:101170001B0A9BB2DAB2224BDA74194BDB88DAB263
:101180001F4B1A75124B01221A70194B1B78002B3A
:1011900002D00F4B01221A700E4B9B8F742B03D081
:1011A0000C4B9B8F842B10D1094B1B78012B0CD13E
:1011B000134B181C04F004FF064B1B6C1249104A19
:1011C000081C111C1A1C04F03DFBBD4603B090BD69
:1011D000CC0100200402002094080020A807002071
:1011E000F4030020F6030020F80300200004004868
:1011F00074030020FF3F0000D0010020FE4F0000DC
:1012000090070020FA030020080F002080B500AFEF
:1012100002F04AFD021C074B5968F0230B401B09E2
:101220000549CB5CDA40054B1A60044B1B68181C5F
:10123000BD4680BD0010024044A600080800002002
:1012400080B500AFFFF7E2FF021C074B5968E023AF
:10125000DB000B401B0A0549CB5C111CD9400B1C61
:10126000181CBD4680BDC0460010024044A60008C0
:1012700080B500AF074B074A126810210A431A6075
:10128000002000F009F803F017FE0023181CBD46EB
:1012900080BDC0460020024080B582B000AF7860BB
:1012A000FFF7B4FF031C181CFA23990005F032FD68
:1012B000031C181C03F0B4F901235A427B68101C6C
:1012C000191C002203F086F90023181CBD4602B049
:1012D00080BDC04680B500AF034B1B685A1C024B53
:1012E0001A60BD4680BDC046D801002080B500AF61
:1012F000024B1B68181CBD4680BDC046D8010020AB
:1013000080B582B000AF021CFB1D1A70FB1D1A785D
:1013100001231340DBB29022D205101C80211A1C3D
:1013200004F0A0FDFB1D1A7802231340DBB29022CB
:10133000D205101C10211A1C04F094FDFB1D1A7814
:1013400004231340DBB29022D205101C20211A1C6A
:1013500004F088FDBD4602B080BDC04680B586B0B1
:1013600000AF3B1DE0221A603B1D01225A603B1D6D
:1013700000229A603B1D0022DA609023DA053B1DB3
:10138000101C191C04F016FBBD4606B080BDC046FB
:1013900080B582B000AF021CFB1D1A70FB1D1B78CC
:1013A000002B07D09023DB05181C4021002204F0FD
:1013B00059FD06E09023DB05181C4021012204F0B2
:1013C00051FDBD4602B080BD80B582B000AF7860EF
:1013D0007B68002B01D101234AE07A686923D35C42
:1013E000002B03D17B68181C03F0F2FD7A68692397
:1013F0000221D1547B681B687A6812681268012147
:101400008A431A607B68181C00F01AFC031C012B2D
:1014100001D101232CE07B685B6A002B03D07B6841
:10142000181C00F05DFD7B681B687A6812685168C3
:10143000114A0A405A607B681B687A681268926891
:1014400022218A439A607B681B687A6812689268D6
:1014500008210A439A607B681B687A6812681268E0
:1014600001210A431A607B68181C00F06FFA031C04
:10147000181CBD4602B080BDFFB7FFFF80B586B027
:1014800000AFF860B9603B60BB1D1A80FA68692341
:10149000D35C012B05D0FA686923D35C222B00D0E2
:1014A00087E0BB68002B03D0BB1D1B88002B01D13C
:1014B00001237FE0FA686823D35C012B01D102236A
:1014C00078E0FA6868230121D154FB680022DA66CB
:1014D000FA686923D35C222B04D1FA68692332218C
:1014E000D15403E0FA6869231221D154FA68B91D76
:1014F00050230988D152FA68B91D52230988D15264
:1015000032E0FA685223D35A013B99B2FA68522367
:10151000D152FA683B68101C8021002200F054FA76
:10152000031C002B01D0032344E0FB689A6880234E
:101530005B019A4211D1FB681B69002B0DD1BB687E
:101540007B61FB681B687A691288D205D20D92B262
:101550001A85BB680233BB6006E0FB681A68BB688B
:10156000591CB9601B781385FA685223D35A002B93
:10157000C7D1FA683B68101C4021002200F024FA11
:10158000031C002B01D0032314E0FA686923D35C09
:10159000322B04D1FA6869232221D15403E0FA687E
:1015A00069230121D154FA6868230021D154002312
:1015B00000E00223181CBD4606B080BD80B586B091
:1015C00000AFF860B960BB1D1A80FA686923D35C6C
:1015D000012B04D0FA686923D35C222B5AD1BB6853
:1015E000002B03D0BB1D1B88002B01D1012352E02F
:1015F000FA686823D35C012B01D102234BE0FA681F
:1016000068230121D154BA68FB68DA64FA68B91D0D
:1016100050230988D152FA68B91D52230988D15242
:10162000FB680022DA66FA686923D35C222B04D1B6
:10163000FA6869233221D15403E0FA686923122140
:10164000D154FB681B6E164A9A62FB681B6E154AE2
:10165000DA62FB681B6E144A1A633B1C08337B6119
:10166000FB68186E7B691968FB681B6828331A1CB5
:10167000BB1D1B8802F0ECFCFB681B68FA68126853
:10168000926880210A439A60FA6868230021D15445
:10169000002300E00223181CBD4606B080BDC046F2
:1016A000FD1A0008791B0008011C000880B586B0EF
:1016B00000AFF860B960BB1D1A80FA686923D35C7B
:1016C000012B04D0FA686923D35C122B55D1BB6877
:1016D000002B03D0BB1D1B88002B01D101234DE043
:1016E000FA686823D35C012B01D1022346E0FA6833
:1016F00068230121D154BA68FB685A65FA68B91D9C
:1017000058230988D152FB680022DA66FA686923F7
:10171000D35C122B04D1FA6869233221D15403E03F
:10172000FA6869232221D154FB685B6E154A9A62DC
:10173000FB685B6E144ADA62FB685B6E134A1A63DD
:101740003B1C08337B61FB68586EFB681B682433C5
:10175000191C7B691A68BB1D1B8802F079FCFB68A9
:101760001B68FA681268926840210A439A60FA6816
:1017700068230021D154002300E00223181CBD4639
:1017800006B080BD951B0008E51B0008011C000881
:1017900080B582B000AF78607A686823D35C012B93
:1017A00001D1022347E07A6868230121D1547A6885
:1017B0006923D35C122B08D17B681B687A68126896
:1017C000926880210A439A6022E07A686923D35C98
:1017D000222B08D17B681B687A68126892684021C6
:1017E0000A439A6014E07A686923D35C322B0FD1E4
:1017F0007B681B687A681268926840210A439A6085
:101800007B681B687A681268926880210A439A6034
:101810007B681B681A680123134007D17B681B682B
:101820007A681268126801210A431A607B68181CE2
:1018300000F08CF8031C181CBD4602B080BDC046E9
:1018400080B582B000AF78607A686823D35C012BE2
:1018500001D1022336E07A6868230121D1547B68E4
:101860001B687A681268926880218A439A607B6854
:101870001B687A681268926840218A439A607B6884
:101880001B6E002B04D07B681B6E181C02F02AFC18
:101890007B685B6E002B04D07B685B6E181C02F0CB
:1018A00021FC7B681B687A681268126801218A43F0
:1018B0001A607A6869230121D1547A68682300216B
:1018C000D1540023181CBD4602B080BD80B582B043
:1018D00000AF7860BD4602B080BDC04680B582B022
:1018E00000AF7860BD4602B080BDC04680B582B012
:1018F00000AF78607A686823D35C012B01D10223A2
:1019000020E07A6868230121D1547A686923022192
:10191000D1547B681B687A68126812680C218A436C
:101920001A607B681B687A681268126808210A438B
:101930001A607A6869230121D1547A6868230021EA
:10194000D1540023181CBD4602B080BD80B582B0C2
:1019500000AF78607B680022DA667B681B681A68D3
:10196000082313400DD0796880239A03154B081C77
:10197000111C002200F028F8031C002B01D00323C7
:101980001CE07B681B681A68042313400DD079683B
:101990008023DA030B4B081C111C002200F014F802
:1019A000031C002B01D0032308E07A68692301217E
:1019B000D1547A6868230021D1540023181CBD46F5
:1019C00002B080BDFFFFFF0180B586B000AFF860B8
:1019D000B9603B60FB1D1A70FFF788FC031C7B613C
:1019E000FB1D1B78002B41D137E03B68013334D01D
:1019F0003B68002B07D0FFF779FC021C7B69D21AE9
:101A00003B689A4229D9FB681B68FA681268126819
:101A100080218A431A60FB681B68FA6812681268A2
:101A200020218A431A60FB681B68FA6812681168F3
:101A3000314A0A401A60FB681B68FA6812689268AB
:101A400001218A439A60FA6869230121D154FA6816
:101A500068230021D15403234AE0FB681B68DB693B
:101A6000BA681A40BB689A42BFD140E037E03B6891
:101A7000013334D03B68002B07D0FFF737FC021C42
:101A80007B69D21A3B689A4229D9FB681B68FA68BD
:101A90001268126880218A431A60FB681B68FA6822
:101AA0001268126820218A431A60FB681B68FA6872
:101AB00012681168104A0A401A60FB681B68FA68CD
:101AC0001268926801218A439A60FA6869230121A9
:101AD000D154FA6868230021D154032308E0FB683D
:101AE0001B68DB69BA681A40BB689A42BFD0002302
:101AF000181CBD4606B080BDFFFEFFFF80B584B058
:101B000000AF78607B685B6AFB60FA685223002153
:101B1000D152FB681B68FA681268926880218A4378
:101B20009A60FA68134B101C40210022FFF74CFF0B
:101B3000031C002B08D0FA6869230321D154FB68E9
:101B4000181C00F095FB11E0FA686923D35C322B76
:101B500004D1FA6869232221D15403E0FA68692389
:101B60000121D154FB68181C00F028FBBD4604B0CD
:101B700080BDC046F055000080B584B000AF7860ED
:101B80007B685B6AFB60FB68181CFFF79FFEBD4625
:101B900004B080BD80B584B000AF78607B685B6ABC
:101BA000FB60FA685A230021D152FB681B68FA686F
:101BB0001268926840218A439A60FA686923D35C6C
:101BC000322B04D1FA6869231221D15403E0FA6858
:101BD00069230121D154FB68181C00F045FABD4669
:101BE00004B080BD80B584B000AF78607B685B6A6C
:101BF000FB60FB68181CFFF771FEBD4604B080BD9A
:101C000080B584B000AF78607B685B6AFB60FA687F
:101C10005A230021D152FA6852230021D152FA6886
:101C200069230121D154FB68DB6E10221A43FB6843
:101C3000DA66FB68181C00F01BFBBD4604B080BDD3
:101C400090B587B000AF78600023FB603B1C173372
:101C500010221A703B1C0A3300221A803B1C1433DA
:101C600000221A803B1C133300221A707B689A688A
:101C70007B681B691A437B685B691A437B68DB6975
:101C80001343FB607B681B687A68126811688C4A92
:101C90001140FA680A431A607B681B687A68126808
:101CA0005168884A11407A68D2680A435A607B6852
:101CB0009A697B681B6A1343FB607B681B687A68C0
:101CC00012689168804A1140FA680A439A607B68FA
:101CD0001A687E4B9A4225D17D4B1A6B0323134021
:101CE000012B0FD004D3022B11D0032B05D013E00E
:101CF0003B1C173300221A7012E03B1C17330222E0
:101D00001A700DE03B1C173304221A7008E03B1CCC
:101D1000173308221A7003E03B1C173310221A7085
:101D2000C0460DE07B681A686A4B9A4204D13B1C9E
:101D3000173300221A7003E03B1C173310221A706D
:101D40007B68DA6980231B029A4268D13B1C1733F7
:101D50001B78022B18D002DC002B05D03DE0042BB1
:101D60001ED0082B2CD038E0FFF76AFA031C5A006B
:101D70007B685B68101C191C04F0CCFF031C1A1C48
:101D80003B1C14331A802DE07B685B685248191C99
:101D900004F0C0FF031C1A1C3B1C14331A8021E002
:101DA00001F082FF031C5A007B685B68101C191C41
:101DB00004F0B0FF031C1A1C3B1C14331A8011E002
:101DC0007B685B6880225002191C04F0A3FF031C8F
:101DD0001A1C3B1C14331A8004E03B1C13330122F1
:101DE0001A70C0463B1C0A333A1C143212880F2169
:101DF0008A431A803B1C14331A880F2313405B104C
:101E000099B23B1C0A333A1C0A3212880A431A80E0
:101E10007B681B683A1C0A321288DA6049E03B1C76
:101E200017331B78022B17D002DC002B05D03BE0C8
:101E3000042B1DD0082B2AD036E07B681C68FFF7E6
:101E4000FFF9021C7B685B68101C191C04F062FF20
:101E5000031C9BB2E3602CE07B681C687B685B68BA
:101E60001E48191C04F056FF031C9BB2E36020E0DF
:101E70007B681C6801F018FF021C7B685B68101C03
:101E8000191C04F047FF031C9BB2E36011E07B6860
:101E90001C687B685B6880221002191C04F03AFF02
:101EA000031C9BB2E36004E03B1C133301221A7055
:101EB000C0463B1C13331B78181CBD4607B090BDB1
:101EC000F369FFFFFFCFFFFFFFF4FFFF0038014082
:101ED00000100240004400400024F40000127A0088
:101EE00080B582B000AF78607B685A6A01231340E6
:101EF0000AD07B681B687A6812685168444A1140AE
:101F00007A68926A0A435A607B685A6A02231340CD
:101F10000AD07B681B687A68126851683D4A114094
:101F20007A68D26A0A435A607B685A6A042313406B
:101F30000AD07B681B687A6812685168364A11407B
:101F40007A68126B0A435A607B685A6A0823134006
:101F50000AD07B681B687A68126851682F4A114062
:101F60007A68526B0A435A607B685A6A102313409E
:101F70000AD07B681B687A6812689168284A114009
:101F80007A68926B0A439A607B685A6A20231340EE
:101F90000AD07B681B687A6812689168214A1140F0
:101FA0007A68D26B0A439A607B685A6A402313406E
:101FB0001BD07B681B687A68126851681A4A114006
:101FC0007A68126C0A435A607B681A6C80235B0340
:101FD0009A420AD17B681B687A6812685168134A72
:101FE00011407A68526C0A435A607B685A6A8023AF
:101FF00013400AD07B681B687A68126851680C4AE3
:1020000011407A68926C0A435A60BD4602B080BDA6
:10201000FFFFFDFFFFFFFEFFFFFFFBFFFF7FFFFF57
:10202000FFEFFFFFFFDFFFFFFFFFEFFFFFFF9FFF60
:10203000FFFFF7FF80B582B000AF78607B680133A7
:102040001B781A067B6802331B781B04D2187B6846
:1020500003331B781B02D2187B6804331B78D31818
:10206000181CBD4602B080BD80B582B000AF78605C
:10207000444B1B78002B5AD1434B1B78522B03D077
:10208000424B1B78522B37D1414B1B687A689A42DE
:1020900003D13C4B01221A700EE03E4B1B687A685C
:1020A0009A4209D13A4B1A683A4B1A60384B7A680F
:1020B0001A60344B01221A70324B1B78002B1AD055
:1020C000344B1B68181CFFF7BBFB324B1B68181CFA
:1020D000FFF75EFB2E4B1B68181CFFF7B1FB2C4B68
:1020E0001B68181CFFF754FB2B4B00221A702B4B5C
:1020F00000221A700DE00CE0264B1B68181C00F043
:102100008FF8244B1A68214B101C191C0B22FFF767
:10211000CDFA1F4B1B68181C00F082F81C4B1A6884
:10212000194B101C191C0B22FFF7C0FA27E0184BA3
:102130001B687A689A420ED1194B1B685B6A1A1C9D
:10214000184B1A60164B1B685B6A9AB2164B1A80C2
:10215000164B01221A700F4B1B687A689A420ED1F7
:102160000F4B1B685B6A1A1C114B1A600C4B1B68E7
:102170005B6A9AB20F4B1A800F4B01221A70BD4650
:1021800002B080BDE4030020780200205402002049
:10219000100500208C070020700700201405002087
:1021A0009408002018050020AC050020ED03002055
:1021B00098020020900500208A07002080B582B098
:1021C00000AF78600F4B1B687A689A4208D10E4BBB
:1021D0001B685B6A9AB20D4B1A800D4B01221A7074
:1021E0000C4B1B687A689A4208D1074B1B685B6AE4
:1021F0009AB2094B1A80094B01221A70BD4602B0EF
:1022000080BDC0468C07002094080020EE0300200B
:1022100088070020100500201E05002089070020E7
:1022200080B582B000AF78607A686823D35C012BF8
:1022300001D1022318E07A6868230121D1547A6819
:1022400069230221D1547B681B687A68126812687E
:102250000C210A431A607A6869230121D1547A68F3
:1022600068230021D1540023181CBD4602B080BD54
:1022700080B582B000AF78607B68181CFFF7E0FA89
:102280007B68181CFFF784FA094B1B687A689A422E
:102290000AD17B68181CFFF7C3FF7A68054B101C36
:1022A000191C0B22FFF702FABD4602B080BDC046E2
:1022B000100500207802002090B5BDB018AF624B29
:1022C000624A1A60FEF7D4FF00F048FF01F098F868
:1022D00001F07AF800F0C6FF00F0E6FF01F004F824
:1022E00001F02EF801F058F8594B181C03F018FAB9
:1022F000584B181C03F014FA574B181C03F010FA33
:10230000FEF7BEFCFEF70AFC544A4C23D35CAA2B12
:1023100001D0FEF791FBFEF7C3FC514B00221A706F
:10232000504B00221A70504B00221A704F4B002263
:102330001A704F4B00221A704E4B4F4A1A604F4B87
:102340004F4A1A603B1C8E3300221A804D4B0022EC
:102350001A703B1C503345221A713B1C8E330122EC
:102360001A8011E03B1C8E331B883A1C8E32128877
:10237000D2B2391C5031CB181A713B1C8E331A88DB
:102380003B1C8E3301321A803B1C8E331B88082B7A
:10239000E8D93B1C50330433181C092103F052FECA
:1023A000031C1A1C3B1C50335A733B1C50330A222B
:1023B0001A603B1C383345221A713B1C8E330122B4
:1023C0001A8011E03B1C8E331B883A1C8E32128817
:1023D000D2B2391C3831CB181A713B1C8E331A8893
:1023E0003B1C8E3301321A803B1C8E331B88102B12
:1023F000E8D93B1C38330433181C112103F022FEAA
:10240000031C1A1C3B1C38335A753B1C38331222F0
:102410001A601D4B181C03F0EFF81C4B181C03F03E
:10242000EBF80B4A1A4B101C191C03F079FA0B4BF2
:102430009B8F181CFEF7D8FA031C002B54D03B1CB2
:102440008E3300221A804AE0E8030020F1310008B0
:10245000080F0020000C0020F808002004020020D3
:10246000E4030020F2030020F003002070070020A6
:10247000140500208C070020FC0600201005002019
:102480000C0800207403002094080020FC030020A6
:10249000380500203B1C8E331A88B44940238A1823
:1024A000D3181B79012B13D13B1C8E331A88131CB4
:1024B0005B009B18DB00AE4A9B18AE4A101C191C2F
:1024C00003F02EFA3B1C8E331B88AB4A0121D154FA
:1024D0003B1C8E331A883B1C8E3301321A803B1C06
:1024E0008E331B88072BD5D9A44B1B685B6A8820C9
:1024F000C0190360A14B1B685B6A8421C9190B607A
:102500009E4B1B685B6A1A1C9D4B1A609B4B1B6899
:102510005B6A1A1C9B4B1A60984B1B685B6A7B6753
:10252000964B1B685B6A8022D21913603B1C1833E0
:10253000954A13CA13C313CA13C311CA11C3934BC9
:1025400000221A70924B00221A70924B00221A70CD
:10255000914B00221A703B1C733300221A70FEF755
:10256000EDFC8E4B1B68181CFFF75AFE8C4B1B684A
:10257000181CFFF755FE8A4B1A688A4B101C191C51
:102580000B22FFF793F8854B1A68874B101C191C18
:102590000B22FFF78BF8012001210022FEF7DEFA63
:1025A000824B181CFDF7C6FD744B1B685B6A1A1C36
:1025B0007F4B1A603B1C7F3300221A703B1C7E331A
:1025C00000221A707B4B1B78002B12D03B1C7E33F1
:1025D0001B78002B0DD1754B181CFDF7ABFD3B1C78
:1025E0007E3301221A70654B1B685B6A8021C91912
:1025F0000B603B1C7F331B78002B07D05B4B9B8F02
:10260000181CFEF7F1F9031C002B04D1674B181CB2
:102610007F21FDF7B3FD594B1B685A6A584B1B6865
:10262000D31AFA2B0FD93B1C7F3301221A700120D9
:10263000FDF7F8FD514B1B685B6A1A1C504B1A6082
:102640005D4B00221A704D4B1B685A6A4D4B1B683C
:10265000D31AFA2B27D93B1C7F3301221A704F4B18
:102660001B68181CFFF7ECF84C4B1B68181CFFF795
:102670008FF8504B1B78002B0CD1484B1B68181C53
:10268000FFF7CEFD454B1A68474B101C191C0B2257
:10269000FFF70CF8394B1B685B6A1A1C394B1A6040
:1026A000464B00221A70434B1B78002B06D10820A2
:1026B00001210822FEF752FA00F02BFD082000212C
:1026C0000822FEF74BFA2D4B1B685A6A384B1B68E1
:1026D000D31A142B06D92E4B1B78002B02D10020C5
:1026E000FDF7A0FD254B1B685A6A8824E41923686E
:1026F000D31AFA2B0AD9324B181C012103F0CCFB58
:102700001E4B1B685B6A8820C01903601B4B1B684B
:102710005A6A8021C9190B68D21AFA235B009A42BF
:1027200003D93B1C7F3301221A70144B1B685A6A71
:102730008424E4192368D21AFA239B009A426DD9A3
:102740000A4B1B6C0B491F4A081C111C1A1C03F076
:1027500079F8064B9B8F181CFEF746F9031C002BDB
:1027600056D03B1C8E3300221A804CE0040200201D
:1027700038060020080F0020EC01002094080020FB
:10278000180500209802002058A60008890700209C
:10279000ED030020880700208A0700208C07002016
:1027A0001005002078020020540200207407002049
:1027B00054050020E40300207007002014050020C9
:1027C00000040048380500203B1C8E331A88D1498C
:1027D00040238A18D3181B79012B0DD13B1C8E3353
:1027E0001A88131C5B009B18DB00CB4A9B18CB4A52
:1027F000101C191C03F094F83B1C8E331A883B1CE8
:102800008E3301321A803B1C8E331B88072BDBD999
:10281000C34B1B685B6A8420C0190360C14B1B78E3
:10282000002B16D0C04B1B78002B12D1BF4B1B784E
:10283000002B0ED1BE4B1B68181CFFF757F8B54B89
:10284000181CFEF7C5F9B74B00221A700120FDF7DE
:10285000E9FCB84B1B78002B43D0B34B1B78002B03
:102860003FD1B24B1B78002B3BD1B14B1B68181CDE
:10287000FFF73CF8A74A4D23D35C022B16D1AE4C90
:102880009023DB051593082316936B46191C221C15
:1028900010325423081C111C1A1C04F009FB206878
:1028A0006168A268E36803F067FD14E0A24CA34BE3
:1028B0001593022316936B46191C221C10325423C5
:1028C000081C111C1A1C04F0F3FA20686168A26845
:1028D000E36803F051FD974B00221A700120FDF7C9
:1028E000A1FC914B1B78012B00D108E1042B00D1F6
:1028F00057E1002B00D064E18A4B1B78002B03D1F9
:102900008C4B1B78002B03D0874B00221A7058E1A8
:102910008B4B1B78002B00D1F0E0894B00221A7002
:10292000884B1B78522B00D0E4E0874B1B78002BA0
:102930005BD13B1C7D3300221A701FE0774A834B2A
:10294000101C191C02F036FF3B1C7D331A78131C37
:10295000DB009B185B001A1C7D4BD2187B4B111CB3
:102960001A1D1223081C111C1A1C04F0A1FA3B1C8E
:102970007D331A783B1C7D3301321A70674B181C6B
:1029800002F004FF031C002B04D13B1C7D331B7899
:102990000B2BD3D91AE03B1C7D331A78131CDB00B8
:1029A0009B185B001A1C6A4BD2183B1C3C33111C51
:1029B0001A1C1223081C111C1A1C04F079FA3B1C67
:1029C0007D331A783B1C7D3301321A703B1C7D33FA
:1029D0001B780B2BDFD93B1C7D331B781A1CD200D4
:1029E000D318DB18DAB25B4B1A70574B00221A70FF
:1029F0004D4B01221A704E4B1B68181CFEF776FFD8
:102A00004B4B1968534B1B78514A081C111C1A1C5C
:102A1000FEF7D4FD424B1B685B6AFB66494B5B7853
:102A2000452B56D04C4A4D4B101C191C0A2204F061
:102A30003FFA4B4B0A221A603C1C6B34464B181C65
:102A4000092103F0FFFA031C2370454B5B7B3A1C02
:102A50006B3212789A423CD1414B1B79502B08D0F3
:102A60003D4B181CFFF7E6FA021C2A4B1B6C9A42DE
:102A700015D13C4A3A4B101C191C02F051FF384B3F
:102A80001B79432B0AD1234B9B8F742B06D1364ADB
:102A9000334B101C191C02F043FF1AE019E02E4BB7
:102AA000181CFFF7C7FA031C01330CD12D4A2C4B1D
:102AB000101C191C02F034FF2B4A294B101C191C46
:102AC00002F02EFF05E0284A254B101C191C02F0CD
:102AD00027FF104B9B8F181CFDF786FF031C002B54
:102AE00001D1FEF72BFA0E4B1B685B6A1A1C1F4BB9
:102AF0001A6003E00120FDF795FB62E061E01C4BEA
:102B00001B78002B36D0084B04221A70184B002279
:102B10001A7045E00402002038060020080F00204B
:102B200094080020F0030020700700201405002006
:102B300010050020F2030020A80700200004004830
:102B4000ED03002078020020E20100202005002093
:102B50003804002090030020980300207902002010
:102B600094030020F8080020000C00206C070020CF
:102B700089070020C54B1B685A6AC54B1B68D31ACE
:102B80000A2B0DD9C34B1B68181CFEF759FEC14B0D
:102B90001B68181CFEF7FCFDBF4B04221A7010E0E6
:102BA0000FE0BE4B01221A70B84B1B685B6A802194
:102BB000C9190B60B84B00221A700120FDF732FBD7
:102BC000C0463B1C7C3300221A70B54B1B78022B8D
:102BD0000AD002DC002B1CD078E2032B00D123E1C9
:102BE000042B00D146E271E2AE4B9B8F181CFDF71F
:102BF000FBFE031C002B07D1A44B1B685A6AAA4B8F
:102C00001B68D31A072B03D9A54B00221A705DE26B
:102C10005CE2A64B1B78002B03D1A54B1B78002B45
:102C200003D09F4B00221A7050E29E4B9B8F181CC2
:102C3000FDF7DAFE031C002B4AD09E4B1B789E4A00
:102C4000D35C0A2B10D99B4B1B789B4A0921D1548A
:102C5000984B1B781A1C8D4B1B685B6AC833191C78
:102C60003B1C18339200D150924B1B781A1C3B1C12
:102C700018339200D358013316D08E4B1B781A1C90
:102C80003B1C18339200D3581A1C804B1B685B6A9C
:102C90009A4209D97D4B1B685B6A1A1C874B1A60E4
:102CA0007F4B04221A7011E2824B1B78844AD35C5A
:102CB000002B06D1834B844A13CA13C313CA13C310
:102CC00006E0804B3A1C503213CA13C313CA13C315
:102CD0007B4B1B781A1C7A4B5B78D218784B9B780D
:102CE000D218774BDB78D218754B1B79D218744BFE
:102CF0005B79D218724B9B79D218714BDB79D21861
:102D0000724B1B789A424CDB714B181C02F03EFD53
:102D1000031C002B25D16E4A6B4B101C191C02F0B2
:102D200049FD684B684A13CA13C313CA13C33B1C3B
:102D30007C3300221A700CE03B1C7C331B78604A09
:102D40000021D1543B1C7C331A783B1C7C3301326C
:102D50001A705E4B1B783A1C7C3212789A42EBD385
:102D60001FE0584B3A1C503213CA13C313CA13C383
:102D70003B1C7C3300221A700CE03B1C7C331B781C
:102D80004F4A0121D1543B1C7C331A783B1C7C33C5
:102D900001321A704D4B1B783A1C7C3212789A42E1
:102DA000EBD3404B9B8F181CFDF71EFE031C002B22
:102DB00004D0404B1B78181CFEF7A2FA384B0322B4
:102DC0001A70444B1B68181CFEF790FD414B1A68A3
:102DD0003C1C6A34404B101C191C01220323FEF7D3
:102DE0004DFB031C23703B4B1A683C1C6A343B4B65
:102DF000101C191C0A220523FEF740FB031C23703C
:102E0000344B1B68181CFFF70BFA324B1A68344B13
:102E1000101C191CD822FEF749FC1C4B1B685B6A6E
:102E20001A1C214B1A6051E12E4B1B78002B00D14C
:102E3000FDE02C4B00221A701E4B1B781E4A00210D
:102E4000D1541C4B1B781E4A0121D154194B1B78BD
:102E50001A1C3B1C1833920001214942D150224BCD
:102E60001B781A1C123A1E4BD3183C1C6934181CD0
:102E7000112103F0E7F8031C23703B1C7B33002275
:102E80001A703B1C7B3300221A70C2E094080020A9
:102E90006C070020100500207007002004000020AF
:102EA000140500200402002050050020F00300203B
:102EB000F2030020F8060020E40100209802002020
:102EC000EC0100207C08002078030020EC030020A7
:102ED000000C00208C07002054A600088008002069
:102EE0009C0200208A070020150500203B1C7B3334
:102EF0001A78131CDB009B185B001A1C864BD31836
:102F00003A1C111D1A1C1223081C111C1A1C03F058
:102F1000CFFF3B1C12221A603B1C1B79452B00D1B2
:102F20007DE03B1C0433181CFFF784F8021C7B4B2C
:102F30001B6C9A4217D1794B9B8F742B13D1784B12
:102F40001B78022B0FD03B1C1B79442B0AD13B1C56
:102F5000DB7C1B029AB23B1C1B7DD3189AB2714BCF
:102F6000DA804FE04EE03B1C5B7A002B2AD16B4BA2
:102F70001B6C1B0EDAB23B1C5A72684B1B6C1B0C91
:102F8000DAB23B1C9A72654B1B6C1B0ADAB23B1C13
:102F9000DA72624B1B6CDAB23B1C1A735F4B9B8F6D
:102FA000181CFDF721FD031C002B0BD03B1C5B7A8A
:102FB000DAB25D4B1B781B01DBB21343DBB2DAB232
:102FC0003B1C5A723B1C181C02F0FAFF3B1C1B797D
:102FD000412B03D03B1C1B79532B06D1534A3B1C7E
:102FE000101C191C02F09CFC0CE03B1C0433181C48
:102FF000FFF720F8031C4D493A1C081C111C1A1C31
:1030000002F020FC3B1C7B331A783B1C7B330132E3
:103010001A703B1C7B331B780B2B00D866E7444BA4
:1030200004221A703B1C733300221A7021E0414BBA
:103030001B685A6A404B1B68D31A0D2B19D93F4B9A
:103040001B68181CFEF7FCFB3C4B1B68181CFEF7AA
:103050009FFB3B1C733301221A70334B1B78384A99
:10306000D25C0132D1B2364AD154314B04221A70AB
:103070002CE02BE0334B01221A702B4B1B785A1C8F
:10308000314B1B78101C191C03F0E8FE0B1CDAB244
:10309000254B1A70294B1B68181CFEF7D1FB274BD8
:1030A0001B68181CFEF774FB1F4B1B78002B09D103
:1030B000204B1B685B6A1A1C1F4B1A601C4B0222B8
:1030C0001A7002E01A4B00221A70C0461F4B181CDF
:1030D00002F05CFB031C002B1BD11C4A1C4B101C78
:1030E000191C02F067FB1A4B181CFDF72FF9031C83
:1030F000002B0ED0174A184B101C41211A1CFDF74B
:1031000011FC0A4A134B101C191C02F009FCFFF7B2
:1031100059FAFFF757FAC0469C020020040200202B
:1031200074030020F4030020F8060020080F00209C
:103130001405002094080020500500208C07002072
:10314000E401002005000020EC030020F808002026
:10315000B005002094050020B405002080B596B08D
:1031600000AF3B1C243302221A603B1C2433012293
:10317000DA603B1C243310221A613B1C24330022EA
:103180005A623B1C2433181C00F0A0F93B1C14337A
:1031900001221A603B1C143300225A603B1C14337A
:1031A00000229A603B1C14330022DA603B1C14336B
:1031B000181C002100F024FC3B1C01221A603B1C5F
:1031C00000229A603B1C181C00F0C0FDFEF71EF8A0
:1031D000031C181CFA23990003F09CFD031C181C07
:1031E00001F01EFA042001F029FABD4616B080BD98
:1031F00080B500AF194B1A4A1A60184B8222520050
:103200005A60164B00229A60144BE022D200DA601A
:10321000124B00221A61114B01225A610F4B80227E
:1032200092009A610D4B3022DA610C4B00221A6237
:103230000A4B00225A62094B00229A62074B0A226B
:10324000DA62064B00221A63044B00225A63034BD6
:10325000181C01F017FABD4680BDC046A807002023
:103260000030014080B500AF0C4B0D4A1A600B4B8B
:10327000FA2252015A60094B00229A60074B094A10
:10328000DA60064B00221A61044B00225A61034B9C
:10329000181C02F089F9BD4680BDC0469408002084
:1032A00000440140FFFF000080B500AF0B4B0C4A0B
:1032B0001A600A4B08225A60084B00229A60074B9A
:1032C000084ADA60054B00221A61044B00225A6159
:1032D000024B181C02F068F9BD4680BDFC030020BB
:1032E00000480140FFFF000080B500AF124B134AB9
:1032F0001A60114BE12292025A600F4B00229A6031
:103300000D4B0022DA600C4B00221A610A4B0C2292
:103310005A61094B00229A61074B0022DA61064B81
:1033200000221A62044B00225A62034B181CFEF75B
:103330004BF8BD4680BDC046FC0600200038014069
:1033400080B500AF124B134A1A60114BE122920272
:103350005A600F4B00229A600D4B0022DA600C4B32
:1033600000221A610A4B0C225A61094B00229A6111
:10337000074B0022DA61064B00221A62044B00223E
:103380005A62034B181CFEF71FF8BD4680BDC046AD
:103390000C0800200044004080B500AF084B094AEB
:1033A0001A60074B80225A60054B7F229A60044BBB
:1033B0007F22DA60024B181CFCF784FEBD4680BDFC
:1033C00074070020002C004080B500AF0B4B0B4A67
:1033D000526901210A435A610A200021002201F0AA
:1033E000F9F80A2001F00CF90B200021002201F06D
:1033F000F1F80B2001F004F9BD4680BD0010024039
:1034000080B586B000AF1B4B1A4A526980218902F1
:103410000A435A61174B174A52698021C9020A436D
:103420005A613B1D10221A603B1D01225A603B1D50
:1034300000229A603B1D0022DA609023DA053B1DD2
:10344000101C191C02F0B6FA3B1D13221A603B1D1A
:1034500001225A603B1D00229A603B1D0022DA6067
:10346000054A3B1D101C191C02F0A4FABD4606B00B
:1034700080BDC04600100240000400480C4885464C
:10348000002103E00B4B5B58435004310A480B4BBF
:1034900042189A42F6D30A4A02E00023136004322B
:1034A000084B9A42F9D302F009F8FEF705FFFEE750
:1034B0000020002044A8000800000020B8010020DF
:1034C000B80100206C120020FEE7000080B584B037
:1034D00000AF78600023FB607B681A68012313400B
:1034E00000D16AE0C14B5A680C231340042B0BD067
:1034F000BE4B5A680C231340082B12D1BB4B5A68A1
:1035000080235B0213400CD0B84B1A6880239B02C7
:10351000134005D07B685B68012B01D0012362E278
:103520004BE0B34B00221A70FDF7E0FE031CFB607A
:1035300009E0FDF7DBFE021CFB68D21AAD4B9A4294
:1035400001D903234FE2A94B1A6880239B02134041
:10355000EFD1A74A7B685B68DBB213707B685B685E
:10356000002B15D0FDF7C2FE031CFB6009E0FDF740
:10357000BDFE021CFB68D21A9E4B9A4201D903235E
:1035800031E29A4B1A6880239B021340EFD014E07B
:10359000FDF7ACFE031CFB6009E0FDF7A7FE021C73
:1035A000FB68D21A934B9A4201D903231BE28F4B3B
:1035B0001A6880239B021340EFD17B681A680223AC
:1035C000134000D16BE0894B5A680C2313400BD099
:1035D000864B5A680C231340082B1DD1834B5A6825
:1035E00080235B02134017D1804B1A6802231340DB
:1035F00005D07B68DB68012B01D00123F3E17B4B15
:103600007A4A1268F821101C8843011C7A681269F2
:10361000D2000A431A6042E07B68DB68002B25D0A9
:10362000724B724A126801210A431A60FDF75EFE6E
:10363000031CFB6008E0FDF759FE021CFB68D31A6F
:10364000642B01D90323CEE1684B1A68022313408F
:10365000F1D0664B654A1268F821101C8843011CA2
:103660007A681269D2000A431A6018E05F4B5F4A19
:10367000126801218A431A60FDF738FE031CFB60C3
:1036800008E0FDF733FE021CFB68D31A642B01D956
:103690000323A8E1554B1A6802231340F1D17B683C
:1036A0001A680823134036D07B681B6A002B19D098
:1036B0004E4B4E4A526A01210A435A62FDF716FEEA
:1036C000031CFB6008E0FDF711FE021CFB68D31A27
:1036D000642B01D9032386E1444B5A6A0223134029
:1036E000F1D018E0414B414A526A01218A435A62A3
:1036F000FDF7FCFD031CFB6008E0FDF7F7FD021C75
:10370000FB68D31A642B01D903236CE1374B5A6A47
:1037100002231340F1D17B681A680423134000D1BF
:103720007BE0324B314AD269802149050A43DA6194
:10373000314B314A1268802149000A431A60FDF773
:10374000D5FD031CFB6008E0FDF7D0FD021CFB6803
:10375000D31A642B01D9032345E1274B1A68802330
:103760005B001340F0D0214B204A126A05218A43A6
:103770001A62FDF7BBFD031CFB6009E0FDF7B6FD17
:10378000021CFB68D21A1B4B9A4201D903232AE17F
:10379000164B1A6A02231340F0D1144B134A126AD3
:1037A0000521101C8843011C7A6892680A431A623A
:1037B0007B689B68012B14D1FDF798FD031CFB600F
:1037C00009E0FDF793FD021CFB68D21A094B9A42EF
:1037D00001D9032307E1054B1A6A02231340F0D0F5
:1037E0001BE0FDF783FD031CFB6011E000100240AD
:1037F000021002408813000000700040FDF776FDC3
:10380000021CFB68D21A7A4B9A4201D90323EAE0E0
:10381000784B1A6A02231340F0D17B681A68102390
:10382000134065D07B685B69012B2BD1714B714ACA
:10383000526B04210A435A636E4B6E4A526B01214C
:103840000A435A63FDF752FD031CFB6008E0FDF7D5
:103850004DFD021CFB68D31A642B01D90323C2E07F
:10386000644B5A6B02231340F1D0624B614A526B96
:10387000F821101C8843011C7A689269D2000A431F
:103880005A6335E07B685B69053312D1594B594A5D
:10389000526B04218A435A63564B564A526BF821A5
:1038A000101C8843011C7A689269D2000A435A634B
:1038B0001EE0504B4F4A526B04210A435A634D4B52
:1038C0004C4A526B01218A435A63FDF70FFD031CDA
:1038D000FB6008E0FDF70AFD021CFB68D31A642BAD
:1038E00001D903237FE0434B5A6B02231340F1D1EC
:1038F0007B685B6A002B00D174E03E4B5A680C2356
:103900001340082B00D16BE07B685B6A022B4CD123
:10391000384B384A1168384A0A401A60FDF7E6FC0D
:10392000031CFB6008E0FDF7E1FC021CFB68D31AF6
:10393000642B01D9032356E02E4B1A6880239B0485
:103940001340F0D12B4B2B4AD26A0F21101C884315
:10395000011C7A68D26A0A43DA62264B254A51680A
:10396000264A11407A68106B7A68926A02430A43C9
:103970005A60204B1F4A1268802149040A431A608A
:10398000FDF7B4FC031CFB6008E0FDF7AFFC021C74
:10399000FB68D31A642B01D9032324E0154B1A6862
:1039A00080239B041340F0D01CE0124B114A116895
:1039B000114A0A401A60FDF799FC031CFB6008E0FD
:1039C000FDF794FC021CFB68D31A642B01D9032376
:1039D00009E0084B1A6880239B041340F0D101E0F2
:1039E000012300E00023181CBD4604B080BDC04682
:1039F0008813000000100240FFFFFFFEFFFFC2FF20
:103A000080B584B000AF786039600023FB60A24BC2
:103A10001A6801231A403B689A4200D393E09E4BF8
:103A20009D4A12680121101C8843011C3A680A4310
:103A30001A60994B1A6801231A403B689A4201D0D8
:103A4000012325E17B681A68022313400AD0934BB7
:103A5000924A5268F021101C8843011C7A689268CF
:103A60000A435A607B681A680123134000D1FDE0C5
:103A70007B685B68012B07D1884B1A6880239B0207
:103A8000134014D1012303E17B685B68022B07D14B
:103A9000824B1A6880239B04134008D10123F7E06E
:103AA0007E4B1A680223134001D10123F0E07B4BC7
:103AB0007A4A52680321101C8843011C7A685268B4
:103AC0000A435A60FDF712FC031CFB607B685B68CD
:103AD000012B11D109E0FDF709FC021CFB68D21A89
:103AE0006F4B9A4201D90323D2E06C4B5A680C23E6
:103AF0001340042BEFD1B9E07B685B68022B11D136
:103B000009E0FDF7F3FB021CFB68D21A644B9A42F2
:103B100001D90323BCE0614B5A680C231340082BE6
:103B2000EFD1A3E009E0FDF7E1FB021CFB68D21A2C
:103B30005B4B9A4201D90323AAE0584B5A680C23E5
:103B40001340F0D192E07B681A68022313400AD038
:103B5000524B524A5268F021101C8843011C7A686B
:103B600092680A435A607B681A680123134000D1A7
:103B700069E07B685B68012B07D1484B1A6880239A
:103B80009B02134014D1012382E07B685B68022B07
:103B900007D1424B1A6880239B04134008D10123AC
:103BA00076E03E4B1A680223134001D101236FE0F7
:103BB0003A4B3A4A52680321101C8843011C7A6828
:103BC00052680A435A60FDF791FB031CFB607B6857
:103BD0005B68012B11D109E0FDF788FB021CFB6833
:103BE000D21A2F4B9A4201D9032351E02B4B5A682A
:103BF0000C231340042BEFD125E07B685B68022B7C
:103C000011D109E0FDF772FB021CFB68D21A244BAC
:103C10009A4201D903233BE0204B5A680C231340FE
:103C2000082BEFD10FE009E0FDF760FB021CFB68F9
:103C3000D21A1B4B9A4201D9032329E0174B5A6829
:103C40000C231340F0D1144B134A12680121101CAD
:103C50008843011C3A680A431A600F4B1A68012313
:103C60001A403B689A4201D0012311E07B681A6830
:103C70000423134008D0094B084A5168094A1140EF
:103C80007A68D2680A435A600020FDF705FB0023DA
:103C9000181CBD4604B080BD002002400010024048
:103CA00088130000FFF8FFFF80B586B000AF002347
:103CB000FB600023BB6000237B6000237B6100234B
:103CC0003B611D4B5B68FB60FA680C231340042BBF
:103CD00002D0082B03D026E0184B3B6126E0FA689F
:103CE000F0239B0313409B0C154AD35C7B60124B63
:103CF000DA6A0F231340134AD35CBB60FA6880234F
:103D00005B02134008D00D48B96803F003F8031CA8
:103D10007A6853437B6103E07B680B4A53437B61C2
:103D20007B693B6102E0054B3B61C0463B69181C67
:103D3000BD4606B080BDC0460010024000127A00A9
:103D400078A6000888A6000800093D0080B584B068
:103D500000AF78600023FB600023BB607B681A68BB
:103D600080235B02134062D04C4B4C4AD2698021C5
:103D700049050A43DA614A4B494A126880214900E1
:103D80000A431A60FDF7B2FA031CFB6008E0FDF776
:103D9000ADFA021CFB68D31A642B01D9032378E027
:103DA0003F4B1A6880235B001340F0D03B4B1A6AEC
:103DB0007B685B685A40C0239B00134014D0374B8C
:103DC0001A6A384B1340BB60344B344A126A802164
:103DD00049020A431A62314B304A116A324A0A4098
:103DE0001A622E4BBA681A627B685A6880235B009D
:103DF0009A4213D1FDF77AFA031CFB6009E0FDF744
:103E000075FA021CFB68D21A284B9A4201D9032387
:103E10003FE0224B1A6A02231340F0D01F4B1F4A87
:103E2000116A204A11407A6852680A431A627B6814
:103E30001A68012313400AD0184B184A126B032149
:103E4000101C8843011C7A6892680A431A637B68D5
:103E50001A68202313400AD0104B104A126B10210D
:103E6000101C8843011C7A68D2680A431A637B6875
:103E70001A688023DB0013400AD0084B074A126BF4
:103E80004021101C8843011C7A6812690A431A6396
:103E90000023181CBD4604B080BDC046001002407F
:103EA00000700040FFFCFFFFFFFFFEFF88130000D3
:103EB00090B585B000AF786039603B1C0F330122AC
:103EC0001A700023BB60334B1B7E012B01D10223F0
:103ED0005BE0304B01221A763C1C0F342E4B181C31
:103EE00001F08EFA031C23703B1C0F331B78002B50
:103EF00045D17B681B68012B10D100F051F83C1CA8
:103F00000F34254B181C01F07BFA031C2370234B44
:103F1000224A126904218A431A6130E03B68012277
:103F200052421A607B685B68BB601FE0BB68181C6C
:103F300001F02CFA3C1C0F34174B181C01F060FAEE
:103F4000031C2370154B154A126902218A431A611A
:103F50003B1C0F331B78002B03D03B68BA681A60F8
:103F60000DE0BB688022D2009B18BB607B685A685A
:103F70007B689B689B02D218BB689A42D6D8054BD7
:103F800000221A763B1C0F331B78181CBD4605B067
:103F900090BDC046D808002050C300000020024059
:103FA00080B500AF084B0022DA61084B074A12695E
:103FB00004210A431A61054B044A126940210A434D
:103FC0001A61BD4680BDC046D808002000200240CE
:103FD00080B584B000AF78600023FB607B68002B65
:103FE00001D101232EE07A6821230221D1547B687C
:103FF0001B681B68FB60FA68144B1340FB607B680E
:104000005A687B689B681A437B68DB681A437B6845
:104010001B691A437B685B691A437B689B691A4377
:104020007B68DB691343FA681343FB607B681B689A
:10403000FA681A607B6800225A637A68212301219A
:10404000D1540023181CBD4604B080BD0FC0FFFF33
:1040500080B584B000AFF860B9607A603B60FA6800
:104060002023D35C012B01D1022336E0FA68202300
:104070000121D154FA6821230221D154FB681B6825
:10408000FA681268126801218A431A60F868B968F0
:104090007A683B6800F0D0F9FB681B68FA68126820
:1040A000126802210A431A60FB681B68FA681268EA
:1040B000126804210A431A60FB681B68FA681268D8
:1040C000126808210A431A60FB681B68FA681268C4
:1040D000126801210A431A600023181CBD4604B06F
:1040E00080BDC04680B584B000AF78600023FB601F
:1040F0007B681B687A681268126801218A431A601B
:10410000FDF7F4F8031CFB6018E0FDF7EFF8021C64
:10411000FB68D21AFA239B009A420FD97B685B6B2B
:1041200020221A437B685A637A6821230321D154E1
:104130007A6820230021D15403230EE07B681B689A
:104140001A6801231340E0D17A6821230121D15458
:104150007A6820230021D1540023181CBD4604B0E6
:1041600080BDC04680B582B000AF7860AD4B1A68A4
:104170007B681B68191CAC4B99421CD07B681B6880
:10418000191CAA4B994214D07B681B68191CA84BB8
:1041900099420BD07B681B68191CA64B994202D12F
:1041A00080231B0208E080231B0305E080231B0102
:1041B00002E0802300E0082313404AD07B681B689C
:1041C0001A680823134044D07B681B687A68126819
:1041D000126808218A431A60924B7A681268111C8F
:1041E000914A91421CD07A681268111C8F4A914200
:1041F00014D07A681268111C8D4A91420BD07A68EB
:104200001268111C8B4A914202D18022120208E0EE
:104210008022120305E08022120102E0802200E0E9
:1042200008225A607B685B6B01221A437B685A63E1
:104230007A6821230421D1547A6820230021D154A3
:104240007B681B6B002B04D07B681B6B7A68101C8F
:104250009847744B1A687B681B68191C724B99420B
:104260001CD07B681B68191C704B994214D07B686A
:104270001B68191C6E4B99420BD07B681B68191C7C
:104280006C4B994202D18023DB0108E08023DB02E2
:1042900005E08023DB0002E0402300E0042313401C
:1042A00046D07B681B681A680423134040D07B68A3
:1042B0001B681A682023134007D17B681B687A6843
:1042C0001268126804218A431A60564B7A68126891
:1042D000111C554A91421CD07A681268111C534A2D
:1042E000914214D07A681268111C514A91420BD045
:1042F0007A681268111C4F4A914202D18022D20181
:1043000008E08022D20205E08022D20002E04022B2
:1043100000E004225A607A6821231121D1547B687D
:10432000DB6A002B04D07B68DB6A7A68101C984734
:104330003C4B1A687B681B68191C3B4B99421CD08C
:104340007B681B68191C394B994214D07B681B6829
:10435000191C374B99420BD07B681B68191C354BD5
:10436000994202D180239B0108E080239B0205E053
:1043700080239B0002E0202300E0022313404ED064
:104380007B681B681A680223134048D07B681B684F
:104390001A682023134007D17B681B687A6812686B
:1043A000126802218A431A601E4B7A681268111C37
:1043B0001D4A91421CD07A681268111C1B4A914216
:1043C00014D07A681268111C194A91420BD07A688D
:1043D0001268111C174A914202D18022920108E012
:1043E0008022920205E08022920002E0202200E07A
:1043F00002225A607B685A6B7B685A637A68212371
:104400000121D1547A6820230021D1547B689B6A12
:10441000002B04D07B689B6A7A68101C9847BD46C5
:1044200002B080BD00000240080002401C000240B3
:10443000300002404400024080B584B000AFF86014
:10444000B9607A603B60FB681B683A685A60FB6839
:104450005B68102B08D1FB681B687A689A60FB6860
:104460001B68BA68DA6007E0FB681B68BA689A6084
:10447000FB681B687A68DA60BD4604B080BDC04640
:1044800080B582B000AF021CFB1D1A70064BFA1DEE
:104490001278111C1F220A400121081C9040021CA6
:1044A0001A60BD4602B080BD00E100E0B0B582B048
:1044B00000AF021C3960FB1D1A70FB1D1B787F2B9F
:1044C00032D93049FB1D1B781A1C0F231340083BBF
:1044D00098082C4AFB1D1B781C1C0F232340083B0B
:1044E0009B0806339B00D3185B68FA1D1278141CD6
:1044F00003222240D200FF24251C95402A1CD243CF
:104500001A403B689C01FF231C40FB1D1B781D1CAF
:1045100003232B40DB00251C9D402B1C1A43831DCD
:104520009B00CB185A6029E0174BFA1D127852B243
:1045300092081549F81D007840B28008C03080000C
:104540004158F81D0078041C03202040C000FF24BF
:10455000251C8540281CC043084039688C01FF2178
:104560000C40F91D09780D1C03212940C900251CA8
:104570008D40291C0143C0329200D150BD4602B08B
:10458000B0BDC04600ED00E000E100E080B582B0C3
:1045900000AF78607B685A1E0C4B9A4201D9012308
:1045A00010E00B4B7A68013A5A6001235B42181CF9
:1045B0000321FFF77BFF064B00229A60044B072282
:1045C0001A600023181CBD4602B080BDFFFFFF002B
:1045D00010E000E080B584B000AFB9607A603B1CA9
:1045E0000F33021C1A703B1C0F3300229A56BB6813
:1045F000101C191CFFF75AFFBD4604B080BDC04611
:1046000080B582B000AF021CFB1D1A70FB1D1B7829
:104610005BB2181CFFF734FFBD4602B080BDC04638
:1046200080B582B000AF78607B68181CFFF7AEFFE2
:10463000031C181CBD4602B080BDC04680B582B0C8
:1046400000AF78607B68042B06D1084B074A1268DC
:1046500004210A431A6005E0044B044A126804214D
:104660008A431A60BD4602B080BDC04610E000E03B
:1046700080B500AF00F002F8BD4680BD80B500AF48
:10468000BD4680BD80B584B000AF78607B68002BEC
:1046900001D101238DE07A685D230221D1547B682A
:1046A000181C00F01DFC7B681B687A681268126891
:1046B00040218A431A607B68DA68E023DB009A4273
:1046C00002D90023FB6002E080235B01FB607B6872
:1046D000DA68F0231B019A4208D07B68DA68E0238D
:1046E000DB009A4202D07B6800229A627B681B6BD7
:1046F000002B0CD17B68DA68E023DB009A4203D9F7
:104700007B6802221A6302E07B6801221A637B68DD
:104710001B687A6851687A68926811437A681269EE
:1047200011437A68526911437A6890698022920035
:10473000024011437A68D26911437A68126A1143C0
:104740007A68926A0A431A607B681B6B022B08D155
:104750007B681B687A6812681268802109010A4325
:104760001A607B681B687A689269110C04221140F8
:104770007A68526A11437A68526B11437A68D26838
:104780001143FA680A435A607B681B687A68D26AE8
:104790001A617B681B687A681268D169074A0A4007
:1047A000DA617B6800221A667A685D230121D154A0
:1047B0000023181CBD4604B080BDC046FFF70000B2
:1047C00080B582B000AF78607B68002B01D10123F7
:1047D00034E07A685D230221D1547A68C0235B01FA
:1047E000101C191C0022322300F0C8FA7B68181C28
:1047F00080210022322300F055FA7A68C023DB00C2
:10480000101C191C0022322300F0B8FA7B681B68C8
:104810007A681268126840218A431A607B68181C03
:1048200000F092FB7B6800221A667A685D23002103
:10483000D1547A685C230021D1540023181CBD4652
:1048400002B080BD80B588B000AFF860B9607A6012
:104850001A1CBB1C1A80FCF749FD031CBB613B1CE6
:104860001F3300221A70FA685C23D35C012B01D13C
:10487000022310E2FA685C230121D154FA685D2317
:10488000D35C012B04D03B1C1F3302221A70F7E1CA
:10489000BB68002B06D07B68002B03D0BB1C1B8899
:1048A000002B04D13B1C1F3301221A70E8E1FA6887
:1048B0005D230521D154FB6800221A66FB687A68E3
:1048C0001A64FA68B91C46230988D152FA68B91CDF
:1048D00044230988D152FB68BA689A63FB68BA1C02
:1048E0001288DA87FB68BA1C12889A87FB689A6A72
:1048F00080239B019A4210D1FB681B68FA681268FA
:104900001168B94A0A401A60FB681B68FA681268A5
:104910001268802189010A431A60FB68DA68E02383
:10492000DB009A4204D8FA684623D35A012B08D9EF
:10493000FB681B68FA6812685168AC4A0A405A6002
:1049400008E0FB681B68FA68126852688021490118
:104950000A435A60FB681B681A684023134007D15A
:10496000FB681B68FA681268126840210A431A60E3
:10497000FB68DA68E023DB009A4200D867E05CE07D
:10498000FB68DB8F002B29D0FB681B689A68022329
:10499000134023D0FB681B68FA68926B1288DA60B8
:1049A000FB689B6B9A1CFB689A63FB68DB8F013B7F
:1049B0009AB2FB68DA87FB68DB8F002B0ED1FB68AD
:1049C0009A6A80239B019A4208D1FB681B68FA68A7
:1049D00012681268802149010A431A60FA68462366
:1049E000D35A002B19D0FB681B689A680123134027
:1049F00013D0FB681A6CFB681B68DB689BB21380E2
:104A0000FB681B6C9A1CFB681A64FA684623D35A2D
:104A1000013B99B2FA684623D152BB6A01330CD0EC
:104A2000FCF764FC021CBB69D21ABB6A9A4204D32D
:104A30003B1C1F3303221A7022E1FB68DB8F002B23
:104A40009ED1FA684623D35A002B99D1A5E099E06C
:104A5000FB68DB8F002B3FD0FB681B689A68022342
:104A6000134039D0FB68DB8F012B11D9FB681B6821
:104A7000FA68926B1288DA60FB689B6B9A1CFB6881
:104A80009A63FB68DB8F023B9AB2FB68DA8710E01F
:104A9000FB681B68191C0C31FB689B6B581CFA687F
:104AA00090631B780B70FB68DB8F013B9AB2FB684D
:104AB000DA87FB68DB8F002B0ED1FB689A6A8023B4
:104AC0009B019A4208D1FB681B68FA681268126859
:104AD000802149010A431A60FA684623D35A002B01
:104AE00040D0FB681B689A68012313403AD0FA68EB
:104AF0004623D35A012B22D9FB681A6CFB681B682A
:104B0000DB689BB21380FB681B6C9A1CFB681A6401
:104B1000FA684623D35A023B99B2FA684623D15227
:104B2000FA684623D35A012B1CD8FB681B68FA6825
:104B300012685268802149010A435A6012E0FB68FA
:104B40001B6C591CFA681164FA6812680C321278EE
:104B5000D2B21A70FA684623D35A013B99B2FA6866
:104B60004623D152BB6A01330CD0FCF7BFFB021CB9
:104B7000BB69D21ABB6A9A4204D33B1C1F3303227F
:104B80001A707DE0FB68DB8F002B00D060E7FA68CD
:104B90004623D35A002B00D05AE7FB689A6A802339
:104BA0009B019A4250D1FA68BB6A101C0121012274
:104BB00000F078F8031C002B05D0FB681B6E022266
:104BC0001A43FB681A66FB68DA68F0231B019A42F5
:104BD0000ED1FB681B68DB689AB23B1C16331A8047
:104BE0003B1C16331B882FE0FFDF0000FFEFFFFFA9
:104BF000FB681B680C331B78DBB21A1C3B1C16339A
:104C00001A803B1C16331B88FB681B6B022B1BD1C5
:104C1000FA68BB6A101C0121012200F043F8031C52
:104C2000002B05D0FB681B6E02221A43FB681A6634
:104C3000FB681B680C331B78DBB21A1C3B1C163359
:104C40001A803B1C16331B88FB681B689A6810236C
:104C500013400DD0FB681B6E02221A43FB681A66D4
:104C6000FB681B680E4A9A603B1C1F3301221A70B6
:104C7000FB681B6E002B03D03B1C1F3301221A70F4
:104C8000FA685D230121D154FA685C230021D154D4
:104C90003B1C1F331B78181CBD4608B080BDC046A6
:104CA000EFFF000080B586B000AFF860B9607A60B1
:104CB0003B60FCF71BFB031C7B6150E03B6801334E
:104CC0004DD03B68002B07D0FCF710FB021C7B6922
:104CD000D21A3B689A4242D3FB681B68FA68126892
:104CE0005268E0218A435A60FB685A6882235B005D
:104CF0009A4213D1FB689A6880231B029A4205D01E
:104D0000FB689A688023DB009A4207D1FB681B6826
:104D1000FA681268126840218A431A60FB689A6A2E
:104D200080239B019A4210D1FB681B68FA681268C5
:104D30001168114A0A401A60FB681B68FA68126819
:104D40001268802189010A431A60FA685D230121F3
:104D5000D154FA685C230021D154032308E0FB6896
:104D60001B689B68BA681A407B689A42A6D10023E8
:104D7000181CBD4606B080BDFFDF000080B586B0C0
:104D800000AFF860B9607A603B60FCF7AFFA031CD3
:104D90007B6163E0BA68C023DB009A420DD17B6877
:104DA000002B0AD1FB681B680C331B78DAB23B1C62
:104DB00013331A703B1C13331B783B6801334DD0FF
:104DC0003B68002B07D0FCF791FA021C7B69D21AD2
:104DD0003B689A4242D3FB681B68FA6812685268C3
:104DE000E0218A435A60FB685A6882235B009A423A
:104DF00013D1FB689A6880231B029A4205D0FB6896
:104E00009A688023DB009A4207D1FB681B68FA6826
:104E10001268126840218A431A60FB689A6A8023EC
:104E20009B019A4210D1FB681B68FA6812681168EE
:104E3000114A0A401A60FB681B68FA681268126817
:104E4000802189010A431A60FA685D230121D15447
:104E5000FA685C230021D154032308E0FB681B6837
:104E60009B68BA681A407B689A4293D10023181C49
:104E7000BD4606B080BDC046FFDF000080B584B0EF
:104E800000AF78600A4B1B68002B02D1084B094A1F
:104E90001A60074B1B68FB60054B1A687B68D218C9
:104EA000034B1A60FB68181CBD4604B080BDC046A9
:104EB000F40100206C12002080B500AF074B074AB8
:104EC000926901210A439A6101235B42181C002167
:104ED0000022FFF77FFBBD4680BDC04600100240A8
:104EE00080B588B000AF78607B681A68144B9A422E
:104EF00022D1144B134A9269802149010A439A61D5
:104F00003B1C0C33E0221A603B1C0C3302225A601B
:104F10003B1C0C3300229A603B1C0C330322DA60EA
:104F20003B1C0C3300221A619023DA053B1C0C3326
:104F3000101C191C00F03EFDBD4608B080BDC046E7
:104F4000003001400010024080B582B000AF7860B0
:104F50007B681A68084B9A420BD1084B074A916943
:104F6000074A0A409A619023DB05181CE02100F0F3
:104F70009BFEBD4602B080BD0030014000100240E3
:104F8000FFEFFFFF80B582B000AF78607B681A68E2
:104F90000C4B9A4207D10C4B0B4A92698021890233
:104FA0000A439A610BE07B681A68084B9A4206D163
:104FB000054B054A92698021C9020A439A61BD46A0
:104FC00002B080BD00440140001002400048014092
:104FD00080B588B000AF78607B681A686F4B9A42E2
:104FE0006AD16F4B6E4A92698021C9010A439A6166
:104FF0003B1C0C33802292001A603B1C0C331222A3
:105000005A603B1C0C3301229A603B1C0C33032278
:10501000DA603B1C0C3301221A619023DA053B1C39
:105020000C33101C191C00F0C5FC5E4B5E4A1A6064
:105030005C4B10225A605B4B00229A60594B8022D5
:10504000DA60584B00221A61564B00225A61554BC8
:1050500000229A61534B80225201DA61514B181C95
:10506000FEF7B6FF7B684F4A1A664E4B7A685A6263
:105070004E4B4F4A1A604D4B00225A604B4B002258
:105080009A604A4B8022DA60484B00221A61474BF3
:1050900000225A61454B00229A61444B8022520102
:1050A000DA61424B181CFEF793FF7B683F4A5A6651
:1050B0003E4B7A685A626DE07B681A683D4B9A42B3
:1050C00068D1374B364AD269802189020A43DA61B6
:1050D0003B1C0C3304221A603B1C0C3312225A6016
:1050E0003B1C0C3301229A603B1C0C330322DA6018
:1050F0003B1C0C3301221A619023DA053B1C0C3354
:10510000101C191C00F056FC2B4B2C4A1A602A4B21
:1051100010225A60284B00229A60274B8022DA60C6
:10512000254B00221A61244B00225A61224B002297
:105130009A61214B80225201DA611F4B181CFEF745
:1051400047FF7B681C4A1A661B4B7A685A621C4BE5
:105150001C4A1A601A4B00225A60194B00229A60AE
:10516000174B8022DA60164B00221A61144B002282
:105170005A61134B00229A61114B80225201DA616D
:105180000F4B181CFEF724FF7B680D4A5A660C4B28
:105190007A685A62BD4608B080BDC04600380140FA
:1051A00000100240580500201C000240C8050020E5
:1051B000300002400044004000060020440002404D
:1051C000AC0300205800024080B582B000AF786088
:1051D0007B681A680A4B9A420ED10A4B094AD26977
:1051E000802109010A43DA61002000210022FFF733
:1051F000F1F90020FFF704FABD4602B080BDC046B9
:10520000002C004000100240F0B587B000AFF860FD
:10521000B9603A607B603B1C173301221A703B1C5B
:10522000163300221A703B1C153300221A70404BB3
:105230001B7E012B01D1022376E03D4B01221A7621
:105240003E1C17363B4B181C00F0DAF8031C337079
:105250003B1C17331B78002B60D1FB68012B04D15A
:105260003B1C153301221A700BE0FB68022B04D1A2
:105270003B1C153302221A7003E03B1C1533042239
:105280001A703B1C163300221A703FE03B1C163389
:105290001B785B001A1CBB68D1183B1C16331B78AB
:1052A0001B011A1C203A002A03DB7868041CD44036
:1052B00009E02022D21A7868061C9640321C386811
:1052C000041CDC4014437A68151CDD40A3B2081CA2
:1052D000191C00F079F83E1C1736164B181C00F00C
:1052E0008FF8031C3370144B134A126901218A434F
:1052F0001A613B1C17331B78002B00D00EE03B1CBF
:1053000016331A783B1C163301321A703A1C1632C7
:105310003B1C153312781B789A42B7D3044B0022FA
:105320001A763B1C17331B78181CBD4607B0F0BD1E
:10533000D808002050C300000020024080B500AF14
:10534000084B1A698023134007D0064B064A5A605F
:10535000044B064A5A60002300E00123181CBD4696
:1053600080BDC0460020024023016745AB89EFCDD8
:1053700080B500AF044B044A126980210A431A61C8
:105380000023181CBD4680BD0020024080B582B0BD
:1053900000AF78600A4B0022DA610A4B094A1269B1
:1053A00002210A431A61074B7A685A61054B054A84
:1053B000126940210A431A61BD4602B080BDC04651
:1053C000D80800200020024080B582B000AF78608D
:1053D0000A1CBB1C1A80084B0022DA61074B074AE3
:1053E000126901210A431A617B68BA1C12881A806B
:1053F000BD4602B080BDC046D80800200020024053
:1054000080B584B000AF7860FBF770FF031CFB60D1
:105410000FE07B6801330CD07B68002B07D0FBF7D3
:1054200065FF021CFB68D21A7B689A4201D90323EC
:105430001BE0104BDA6801231340EAD10D4BDA6808
:105440002023134002D00B4B2022DA60094BDA688C
:105450001023134004D1074BDA680423134003D010
:1054600000F00AF8012300E00023181CBD4604B038
:1054700080BDC0460020024080B500AF0D4BDA6809
:105480001023134005D00C4BDB6902221A430A4B50
:10549000DA61084BDA680423134005D0064BDB6958
:1054A00001221A43044BDA61024B1422DA60BD4632
:1054B00080BDC04600200240D808002080B500AF63
:1054C0001A4B1A4A126801210A431A60174B174AED
:1054D0005168174A0A405A60144B144A1168154A19
:1054E0000A401A60114B114A1168134A0A401A60A7
:1054F0000E4B0E4A5168114A0A405A600B4B0B4A38
:10550000D26A0F218A43DA62084B084A116B0C4AAF
:105510000A401A63054B054A526B01218A435A63BC
:10552000024B00229A60BD4680BDC046001002407A
:105530000CB8FFF8FFFFF6FEFFFFFBFFFFFFC0FF09
:10554000ACFEFFFF80B500AFFBF7C4FEFFF790F89D
:10555000BD4680BD80B500AF024B181CFAF736FE81
:10556000BD4680BD7407002080B500AF044B181CF9
:10557000FEF7F8FD034B181CFEF7F4FDBD4680BD99
:1055800058050020C805002080B500AF044B181C4A
:10559000FEF7E8FD034B181CFEF7E4FDBD4680BD99
:1055A00000060020AC03002080B582B000AF786018
:1055B0007B68002B01D101231AE07A683923D35C80
:1055C000DBB2002B03D17B68181CFFF7DBFC7A6889
:1055D00039230221D1547B681A687B680433101C7C
:1055E000191C00F023F87A6839230121D1540023D3
:1055F000181CBD4602B080BD80B582B000AF786097
:105600007A6839230221D1547B681B687A68126852
:10561000126801210A431A607A6839230121D154A2
:105620000023181CBD4602B080BDC04680B584B0C2
:1056300000AF786039600023FB607B681B68FB600B
:105640007A68304B9A4208D07A688023DB059A4208
:1056500003D07A682C4B9A4208D1FB68702293439E
:10566000FB603B685B68FA681343FB607A68254B14
:105670009A4218D07A688023DB059A4213D07A6860
:10568000214B9A420FD07A68204B9A420BD07A680D
:105690001F4B9A4207D07A681E4B9A4203D07A6811
:1056A0001D4B9A4208D1FA681C4B1340FB603B68C3
:1056B000DB68FA681343FB607B68FA681A603B6832
:1056C0009A687B68DA623B681A687B689A627A68D3
:1056D0000C4B9A420BD07A680D4B9A4207D07A68ED
:1056E0000C4B9A4203D07A680B4B9A4203D13B6829
:1056F0001A697B681A637B6801225A61BD4604B04F
:1057000080BDC046002C0140000400400020004045
:10571000004001400044014000480140FFFCFFFF01
:1057200080B584B000AF78607A68C0239B00002108
:10573000D1507A68C1239B000021D1500023FB6027
:105740001DE07968FA68131C5B009B18DB000022DF
:105750005A507968FA68131C5B009B18DB00CB1861
:1057600000221A717968FA68131C5B009B18DB0031
:10577000CB18113300221A71FB680133FB60FB6800
:105780001F2BDEDDBD4604B080BDC04680B582B0B3
:1057900000AF78607A68C0239B00D2587968C12333
:1057A0009B00CB58D31A5A425341DBB2181CBD465A
:1057B00002B080BD80B582B000AF7860396072B64B
:1057C0007B68181CFFF7E2FF031C002B06D03B6828
:1057D00000221A603B6800221A712CE07A68C0230C
:1057E0009B00D258131C5B009B18DB007A68D3180F
:1057F0003A68101C191C182201F05AFB7A68C02361
:105800009B00D2587968131C5B009B18DB000022B8
:105810005A507A68C0239B00D3585A1C084B134037
:1058200004D5013B2022524213430133191C7A68EC
:10583000C0239B00D15062B6BD4602B080BDC046B9
:105840001F00008080B586B000AFF860B9607A6054
:10585000FA68C0239B00D3587B612FE07A69131C40
:105860005B009B18DB00FA68D3180433181CFCF7A4
:10587000E1FB031C1A1C7B689A4214D1F9687A690F
:10588000131C5B009B18DB00CB181A79BB681B79D3
:105890009A4208D1F968BA687B69081C111C1A1C65
:1058A00000F026F811E07B695A1C104B134004D518
:1058B000013B20225242134301337B61FA68C1232A
:1058C0009B00D2587B699A42C8D1FA68C1239B00D9
:1058D000D2587B699A4205D1FA68BB68101C191C22
:1058E00000F01EF8BD4606B080BDC0461F00008017
:1058F00080B584B000AFF860B9607A6072B67A683B
:10590000131C5B009B18DB00FA68D218BB68101CE4
:10591000191C182201F0CCFA62B6BD4604B080BD55
:1059200080B582B000AF7860396072B67A68C12302
:105930009B00D258131C5B009B18DB007A68D218BE
:105940003B68101C191C182201F0B2FA7A68C123B6
:105950009B00D3585A1C164B134004D5013B202200
:10596000524213430133191C7A68C1239B00D15062
:105970007A68C0239B00D2587968C1239B00CB581A
:105980009A4211D17A68C0239B00D3585A1C084B05
:10599000134004D5013B2022524213430133191C0A
:1059A0007A68C0239B00D15062B6BD4602B080BD6C
:1059B0001F00008080B586B000AF7860396000239A
:1059C0007B610023FB6000233B6155E13B681B6862
:1059D0007A690121081C9040021C1340FB60FB689F
:1059E000002B00D145E13B685B68022B03D03B688C
:1059F0005B68122B25D17B69DA087B68083292003C
:105A0000D3583B617A69072313409B000F22111C76
:105A100099400B1CDA433B6913403B613B681A69B0
:105A2000796907230B409B00101C9840031C3A69BE
:105A300013433B617B69DA087B680832920039695D
:105A4000D1507B681B683B617B695B000322111CA2
:105A500099400B1CDA433B6913403B613B685A6831
:105A600003231A407B695B00101C9840031C3A69B1
:105A700013433B617B683A691A603B685B68012BA2
:105A80000BD03B685B68022B07D03B685B68112B2F
:105A900003D03B685B68122B34D17B689B683B6109
:105AA0007B695B000322111C99400B1CDA433B69A4
:105AB00013403B613B68DA687B695B00101C9840CF
:105AC000031C3A6913433B617B683A699A607B68BF
:105AD0005B683B617B690122111C99400B1CDA4316
